S00E00006174707231332E73726563FB
S113000019C026C0B7C024C023C022C0F2C020C07B
S11300101FC01EC029C02CC02DC031C037C03BC07A
S11300203DC041C046C049C0FFCBB4A190806F5EC3
S11300304B34000011241FBECFE9CDBF20E0A0E661
S1130040B0E001C01D92A736B207E1F7F2D09AC121
S1130050D7CFC498C39890E0FC013197EA30F105FA
S113006068F5E65FFF4F09946F3740F5C49A089529
S1130070C49A0895C49A6F3708F5C39A08956F7B9C
S113008060526F31D8F4C39AC49A08956F37B0F4AC
S1130090C39AC49A0895C39AC49A0895C39A6F37A9
S11300A068F4C49A08956F7B60526F3138F4C39A30
S11300B008956F3718F4C39A0895C39A08958091E8
S11300C06100813079F028F08230E1F0833059F119
S11300D042C0B29940C085E08093650081E080937E
S11300E0610039C080916500811140C0B29907C098
S11300F084E68093650082E0809361002CC01092B6
S1130100610029C0B29B27C080916500811104C0A1
S11301101092610083E0089583E08093610082E39C
S11301208093650023C08091650081111FC01092E7
S11301306100B29906C0809164008F5F809364006F
S11301400AC080916400882379F0813021F41092F0
S1130150640082E0089580916500882351F0815005
S11301608093650080E0089581E0089580916500A2
S1130170F6CF08951F920F920FB60F9211248F930A
S11301809F93EF93FF9380916000813049F4E09155
S11301906300F0E0E85DFF4FE491E093660020C067
S11301A08230E9F48091660081111AC0B19918C0B7
S11301B09091620080916300981710F4C09A01C076
S11301C0C098809162008A3020F48F5F809362002F
S11301D002C01092620082E38093660001C0C0985E
S11301E0FF91EF919F918F910F900FBE0F901F90F1
S11301F018951F920F920FB60F9211248F9380912E
S11302006600882359F080916000813009F4C09819
S11302108091660081508093660005C080916000E3
S1130220813009F4C09A8F910F900FBE0F901F90E8
S11302301895F89487E088BB89E187BB80E28BBF7F
S113024082E085BB8FBD81E083BF8BEB86BF84E0FA
S113025089BF109263007894CFEFD0E00F2EFAE0BC
S1130260FF2EF02D6894EE24E1F811E004E6C1506D
S11302706C2F80916300EDDE22DF9091600091117C
S113028023C08330B9F480E090E068D09FEF980FEA
S1130290923018F48093600002C01093600081E0F3
S11302A090E05CD0882319F0809363004EC0F092F4
S11302B063004BC0823009F048C080E090E04ED02B
S11302C0D82F0093600041C02FEF290F2230F0F4A3
S11302D0813059F4809163008A3020F48F5F8093D9
S11302E0630033C01093630030C0833071F581E044
S11302F090E034D060916300861719F081E090E0BB
S113030034D010926000109263001FC09436E9F458
S1130310813031F4D13001F1D23071F4D12F0CC0DD
S1130320833051F46D2F80E090E01FD01092630071
S113033010926000D0E009C0D13019F4E09263005B
S113034004C0D23011F4F09263008FE697E1019774
S1130350F1F700C000008BCFDE2DEECFE199FECF88
S11303608EBBE09A99278DB30895262FE199FECF8D
S11303701CBA8EBB2DBB0FB6F894E29AE19A0FBE5D
S10B038001960895F894FFCFE3
S9030000FC
